{
  "_format": "hh-sol-artifact-1",
  "contractName": "Faucet",
  "sourceName": "contracts/Faucet.sol",
  "abi": [
    {
      "inputs": [],
      "stateMutability": "nonpayable",
      "type": "constructor"
    },
    {
      "inputs": [],
      "name": "multipleSend",
      "outputs": [],
      "stateMutability": "nonpayable",
      "type": "function"
    },
    {
      "inputs": [
        {
          "internalType": "address",
          "name": "_address",
          "type": "address"
        }
      ],
      "name": "setDAIAddress",
      "outputs": [],
      "stateMutability": "nonpayable",
      "type": "function"
    },
    {
      "inputs": [
        {
          "internalType": "uint256",
          "name": "_amount",
          "type": "uint256"
        }
      ],
      "name": "setFaucetDripAmount",
      "outputs": [],
      "stateMutability": "nonpayable",
      "type": "function"
    },
    {
      "inputs": [
        {
          "internalType": "address",
          "name": "_address",
          "type": "address"
        }
      ],
      "name": "setJPYCAddress",
      "outputs": [],
      "stateMutability": "nonpayable",
      "type": "function"
    },
    {
      "inputs": [
        {
          "internalType": "address",
          "name": "_address",
          "type": "address"
        }
      ],
      "name": "setUSDCAddress",
      "outputs": [],
      "stateMutability": "nonpayable",
      "type": "function"
    },
    {
      "inputs": [
        {
          "internalType": "address",
          "name": "_address",
          "type": "address"
        }
      ],
      "name": "setWETHAddress",
      "outputs": [],
      "stateMutability": "nonpayable",
      "type": "function"
    }
  ],
  "bytecode": "0x6080604052600160065534801561001557600080fd5b50336000806101000a81548173ffffffffffffffffffffffffffffffffffffffff021916908373ffffffffffffffffffffffffffffffffffffffff160217905550611075806100656000396000f3fe608060405234801561001057600080fd5b50600436106100625760003560e01c806319709a9d146100675780631a0c069a146100835780636a4234eb1461009f5780637813eb99146100bb578063aaf5bfc3146100c5578063fb51d660146100e1575b600080fd5b610081600480360381019061007c9190610cce565b6100fd565b005b61009d60048036038101906100989190610d20565b6101cf565b005b6100b960048036038101906100b49190610cce565b610267565b005b6100c3610339565b005b6100df60048036038101906100da9190610cce565b610ad6565b005b6100fb60048036038101906100f69190610cce565b610ba8565b005b60008054906101000a900473ffffffffffffffffffffffffffffffffffffffff1673ffffffffffffffffffffffffffffffffffffffff163373ffffffffffffffffffffffffffffffffffffffff161461018b576040517f08c379a000000000000000000000000000000000000000000000000000000000815260040161018290610e5d565b60405180910390fd5b80600560006101000a81548173ffffffffffffffffffffffffffffffffffffffff021916908373ffffffffffffffffffffffffffffffffffffffff16021790555050565b60008054906101000a900473ffffffffffffffffffffffffffffffffffffffff1673ffffffffffffffffffffffffffffffffffffffff163373ffffffffffffffffffffffffffffffffffffffff161461025d576040517f08c379a000000000000000000000000000000000000000000000000000000000815260040161025490610e5d565b60405180910390fd5b8060068190555050565b60008054906101000a900473ffffffffffffffffffffffffffffffffffffffff1673ffffffffffffffffffffffffffffffffffffffff163373ffffffffffffffffffffffffffffffffffffffff16146102f5576040517f08c379a00000000000000000000000000000000000000000000000000000000081526004016102ec90610e5d565b60405180910390fd5b80600260006101000a81548173ffffffffffffffffffffffffffffffffffffffff021916908373ffffffffffffffffffffffffffffffffffffffff16021790555050565b42600160003373ffffffffffffffffffffffffffffffffffffffff1673ffffffffffffffffffffffffffffffffffffffff16815260200190815260200160002054106103ba576040517f08c379a00000000000000000000000000000000000000000000000000000000081526004016103b190610e3d565b60405180910390fd5b6001600260009054906101000a900473ffffffffffffffffffffffffffffffffffffffff1673ffffffffffffffffffffffffffffffffffffffff166370a08231306040518263ffffffff1660e01b81526004016104179190610df9565b60206040518083038186803b15801561042f57600080fd5b505afa158015610443573d6000803e3d6000fd5b505050506040513d601f19601f820116820180604052508101906104679190610d49565b116104a7576040517f08c379a000000000000000000000000000000000000000000000000000000000815260040161049e90610e7d565b60405180910390fd5b6001600360009054906101000a900473ffffffffffffffffffffffffffffffffffffffff1673ffffffffffffffffffffffffffffffffffffffff166370a08231306040518263ffffffff1660e01b81526004016105049190610df9565b60206040518083038186803b15801561051c57600080fd5b505afa158015610530573d6000803e3d6000fd5b505050506040513d601f19601f820116820180604052508101906105549190610d49565b11610594576040517f08c379a000000000000000000000000000000000000000000000000000000000815260040161058b90610e7d565b60405180910390fd5b6001600460009054906101000a900473ffffffffffffffffffffffffffffffffffffffff1673ffffffffffffffffffffffffffffffffffffffff166370a08231306040518263ffffffff1660e01b81526004016105f19190610df9565b60206040518083038186803b15801561060957600080fd5b505afa15801561061d573d6000803e3d6000fd5b505050506040513d601f19601f820116820180604052508101906106419190610d49565b11610681576040517f08c379a000000000000000000000000000000000000000000000000000000000815260040161067890610e7d565b60405180910390fd5b6001600560009054906101000a900473ffffffffffffffffffffffffffffffffffffffff1673ffffffffffffffffffffffffffffffffffffffff166370a08231306040518263ffffffff1660e01b81526004016106de9190610df9565b60206040518083038186803b1580156106f657600080fd5b505afa15801561070a573d6000803e3d6000fd5b505050506040513d601f19601f8201168201806040525081019061072e9190610d49565b1161076e576040517f08c379a000000000000000000000000000000000000000000000000000000000815260040161076590610e7d565b60405180910390fd5b62093a804261077d9190610eae565b600160003373ffffffffffffffffffffffffffffffffffffffff1673ffffffffffffffffffffffffffffffffffffffff16815260200190815260200160002081905550600260009054906101000a900473ffffffffffffffffffffffffffffffffffffffff1673ffffffffffffffffffffffffffffffffffffffff1663a9059cbb33670de0b6b3a76400006006546108159190610eae565b6040518363ffffffff1660e01b8152600401610832929190610e14565b602060405180830381600087803b15801561084c57600080fd5b505af1158015610860573d6000803e3d6000fd5b505050506040513d601f19601f820116820180604052508101906108849190610cf7565b50600360009054906101000a900473ffffffffffffffffffffffffffffffffffffffff1673ffffffffffffffffffffffffffffffffffffffff1663a9059cbb33670de0b6b3a76400006006546108da9190610eae565b6040518363ffffffff1660e01b81526004016108f7929190610e14565b602060405180830381600087803b15801561091157600080fd5b505af1158015610925573d6000803e3d6000fd5b505050506040513d601f19601f820116820180604052508101906109499190610cf7565b50600460009054906101000a900473ffffffffffffffffffffffffffffffffffffffff1673ffffffffffffffffffffffffffffffffffffffff1663a9059cbb33670de0b6b3a764000060065461099f9190610eae565b6040518363ffffffff1660e01b81526004016109bc929190610e14565b602060405180830381600087803b1580156109d657600080fd5b505af11580156109ea573d6000803e3d6000fd5b505050506040513d601f19601f82011682018060405250810190610a0e9190610cf7565b50600560009054906101000a900473ffffffffffffffffffffffffffffffffffffffff1673ffffffffffffffffffffffffffffffffffffffff1663a9059cbb33670de0b6b3a7640000600654610a649190610eae565b6040518363ffffffff1660e01b8152600401610a81929190610e14565b602060405180830381600087803b158015610a9b57600080fd5b505af1158015610aaf573d6000803e3d6000fd5b505050506040513d601f19601f82011682018060405250810190610ad39190610cf7565b50565b60008054906101000a900473ffffffffffffffffffffffffffffffffffffffff1673ffffffffffffffffffffffffffffffffffffffff163373ffffffffffffffffffffffffffffffffffffffff1614610b64576040517f08c379a0000000000000000000000000000000000000000000000000000000008152600401610b5b90610e5d565b60405180910390fd5b80600360006101000a81548173ffffffffffffffffffffffffffffffffffffffff021916908373ffffffffffffffffffffffffffffffffffffffff16021790555050565b60008054906101000a900473ffffffffffffffffffffffffffffffffffffffff1673ffffffffffffffffffffffffffffffffffffffff163373ffffffffffffffffffffffffffffffffffffffff1614610c36576040517f08c379a0000000000000000000000000000000000000000000000000000000008152600401610c2d90610e5d565b60405180910390fd5b80600460006101000a81548173ffffffffffffffffffffffffffffffffffffffff021916908373ffffffffffffffffffffffffffffffffffffffff16021790555050565b600081359050610c8981610ffa565b92915050565b600081519050610c9e81611011565b92915050565b600081359050610cb381611028565b92915050565b600081519050610cc881611028565b92915050565b600060208284031215610ce057600080fd5b6000610cee84828501610c7a565b91505092915050565b600060208284031215610d0957600080fd5b6000610d1784828501610c8f565b91505092915050565b600060208284031215610d3257600080fd5b6000610d4084828501610ca4565b91505092915050565b600060208284031215610d5b57600080fd5b6000610d6984828501610cb9565b91505092915050565b610d7b81610f08565b82525050565b6000610d8e601c83610e9d565b9150610d9982610f7f565b602082019050919050565b6000610db1601483610e9d565b9150610dbc82610fa8565b602082019050919050565b6000610dd4601283610e9d565b9150610ddf82610fd1565b602082019050919050565b610df381610f46565b82525050565b6000602082019050610e0e6000830184610d72565b92915050565b6000604082019050610e296000830185610d72565b610e366020830184610dea565b9392505050565b60006020820190508181036000830152610e5681610d81565b9050919050565b60006020820190508181036000830152610e7681610da4565b9050919050565b60006020820190508181036000830152610e9681610dc7565b9050919050565b600082825260208201905092915050565b6000610eb982610f46565b9150610ec483610f46565b9250817fffffffffffffffffffffffffffffffffffffffffffffffffffffffffffffffff0483118215151615610efd57610efc610f50565b5b828202905092915050565b6000610f1382610f26565b9050919050565b60008115159050919050565b600073ffffffffffffffffffffffffffffffffffffffff82169050919050565b6000819050919050565b7f4e487b7100000000000000000000000000000000000000000000000000000000600052601160045260246000fd5b7f4661756365744572726f723a2054727920616761696e206c6174657200000000600082015250565b7f596f7520617265206e6f74207468652043454f2e000000000000000000000000600082015250565b7f4661756365744572726f723a20456d7074790000000000000000000000000000600082015250565b61100381610f08565b811461100e57600080fd5b50565b61101a81610f1a565b811461102557600080fd5b50565b61103181610f46565b811461103c57600080fd5b5056fea2646970667358221220f0da1ad335db3540042b7935c5d66e590027f111ebf3284d5296cb3efadd508264736f6c63430008040033",
  "linkReferences": {},
  "deployedLinkReferences": {}
}